:020000040000FA
:030000000200D724
:0300330002064280
:03006B00020591FA
:03007B000205E398
:1000830002069200000080FBE490010178437902AC
:100093008002F0A3D8FCD9FA7A437B029001077857
:1000A300EE79018015E493A3AD82AE838A828B83BC
:1000B300F0A3AA82AB838D828E83D8E9D9E77582B8
:1000C300CB75830E74001200E97582867583007404
:1000D300001200E975D0007581BF750E01750F011F
:1000E300759F0002008BC09FF59FE473D09F22D0C1
:1000F30083D082C09FE493C0E0740193C0E0740294
:1001030093F59F22FF0000000000000000000000A4
:100113004901537769746368004C696768740052D6
:1001230065616479004A6F79737469636B205075F4
:1001330073680053656E6420436F6D6D616E640078
:100143004C69676874205377697463680044657603
:10015300696365204D6F64653A20005102015802BE
:10016300029A0202323432300032343330003234F5
:1001730033310032353230003235333000323533EB
:1001830031003235313000323531310031313130E7
:100193000031313131002D2D2D2D002020204343FE
:1001A300787878782028202900202020000000007B
:1001B300000000000000000000000000000000003C
:1001C300000000000000002020205449204C50571C
:1001D3000003070E0E1C191B1B1B1B191C0E0E07FD
:1001E30003181E0703181C060000061C1803071E2D
:1001F300181200F28113001200F2CA06001200F274
:10020300C207001200F22408001200F2350900129E
:1002130000F24009001200F2B709001200F2C70908
:10022300001200F2DF11001200F21312001200F2AA
:10023300FA13001200F27711001200F2B711001244
:1002430000F2F012001200F23914001200F23E1410
:10025300001200F2DE0F001200F2ED0F001200F2A6
:100263003D10001200F2AB0B001200F2C00B0012A3
:1002730000F2D20B001200F20B0C001200F24B0C36
:10028300001200F28D0C001200F2A20C001200F218
:10029300AD0C001200F2B20C001200F2B50C001209
:1002A30000F2030D001200F2190D001200F24E0DC0
:1002B300001200F23C12001200F26A12001200F265
:1002C3008310001200F2AB10001200F2D8100012DB
:1002D30000F2FF10001200F2510D001200F2A20D05
:1002E300001200F2AD0D001200F2C50D001200F273
:1002F300CE0D001200F2DE0D001200F2E80D001226
:1003030000F2F20D001200F2180E001200F2410E7C
:10031300001200F25F0E001200F26D0E001200F2E6
:10032300760E001200F27F0E001200F2900E001201
:1003330000F2A10E001200F2BC0E001200F2021134
:10034300001200F26D11001200F2D609001200F241
:10035300A80A001200F23B13001200F2C4130012A9
:1003630000F21B14001200F2981200CAC0E0E6F07B
:10037300A308DAFAD0E0FA22CAC0E0E0A3C582CC2F
:10038300C582C583CDC583F0A3C582CCC582C58391
:10039300CDC583DAE6D0E0CA22700422600D18C608
:1003A300C333C608C633C6D5E0F41822250E10AFF2
:1003B30008F50E400C150F8008F50E4002150FD2FC
:1003C300AF2200C0D0250E10AF08F50E500C050F5C
:1003D3008008F50E5002050FD2AFD0D022250EF5BE
:1003E3008210AF08F50E400C150F8008F50E400281
:1003F300150FD2AF850F8322250EF582E4350FF555
:100403008322250EFAE4350FFB22250EFCE4350F7B
:10041300FD22E473250EC582C0E0E50F34FFC583DA
:10042300C0E0E50EC3958224F810AF0885830F85DD
:10043300820E800885830F85820ED2AFCEF0A3E5AE
:1004430020F0A37808E608F0A3DEFAEFF0A3E58135
:1004530024FAF8E608F0A3E608F0A3E608F0A308F8
:1004630008E608F0A3E608F0A315811581D0E0FEA5
:10047300D0E0F8158115811581E8C0E0EEC0E022D7
:10048300850F83850E82E0A3FEE0A3F5207808E0C4
:10049300A3F608DFFAE0A3FFE0A3C0E0E0A3C0E017
:1004A300E0A3C0E0E0A3C0E0E0A3C0E010AF088594
:1004B300820E85830F800885820E85830FD2AFD08D
:1004C30083D0820200EFC0D0250EC582C0E0E50FC5
:1004D30034FFC583C0E0E50EC3958224F310AF0853
:1004E30085830F85820E800885830F85820ED2AFA8
:1004F300C8F0A3E9F0A3EAF0A3EBF0A37908E709B6
:10050300F0A3D8FAECF0A3EDF0A3EEF0A3EFF0A381
:10051300D0E0F0A3D0E0F0A3D0E0F0A3E520F0A377
:10052300E5F0F0A322850F83850E82E0C0E0A3E00F
:10053300F9A3E0FAA3E0FBA37808E0F608A3DFFA47
:10054300E0FCA3E0FDA3E0FEA3E0FFA3E0C0E0A383
:10055300E0C0E0A3E0F5D0A3E0F520A3E0A3F5F02D
:1005630010AF0885830F85820E800885830F8582EF
:100573000ED2AFD082D083D0E0F8D0E032740280C4
:1005830000C0E0F4041203E0D0E012036E22C0E0E6
:1005930074F11204C9C2C5E58960327E0075080191
:1005A300750900EE780812039CAF08E5895F6016B1
:1005B3001205D5F9E849600A1205D5F58388821238
:1005C3000415EFF452890EEEC3940840D07F020263
:1005D300052812063274FD28F582740112063A22A8
:1005E300C0E074F11204C9C2EBE58A60327E007583
:1005F3000801750900EE780812039CAF08E58A5FCD
:100603006016120624F9E849600A120624F5838865
:1006130082120415EFF4528A0EEEC3940840D08080
:10062300AC120632740D28F582740212063A22EED9
:1006330025E0F8E433F92239F583E0F8A3E022C09A
:10064300E074F11204C9C2E8E58B60327E007508DC
:1006530001750900EE780812039CAF08E58B5F6013
:1006630016120684F9E849600A120684F583888223
:10067300120415EFF4528B0EEEC3940540D002051D
:10068300D0120632741D28F582740212063A22C073
:10069300E074F21204C9A2AFE433FEC2AFE5E9A2EB
:1006A300E6501A900239E0F8A3E0F9E8496008E05F
:1006B300F5838882120415759B0053E9BFEEA2E00F
:1006C30092AF7F01020528C082C083120326120263
:1006D3004879017A7D7B0112030E90017DE0C2E728
:1006E300F06405703F79057A7E7B0112030E900159
:1006F3007EE0A2E55004D2F08002C2F0A2F0E4331F
:1007030090024BF0900182E0A2E740030207B2900F
:100713000180E0F8900101E06860030207B2A3746E
:10072300010207B1E024F5900248F090017DE0F961
:100733007A7E7B0112030E90017EE0A2E55004D283
:10074300F08002C2F0A2F0E43390024BF0900185F6
:10075300E0F8A3E0F9900244E8F0A3E9F09002493D
:100763007487F0A37401F0900248E0F83395E0F940
:10077300748728F8740139F988828983E090024CE0
:10078300F088828983A3E0A2E7501C900243E0F83B
:10079300900180E068601090017EE054DF64417056
:1007A3000690024D7401F0900180E0900243F01234
:1007B300024E12032C8001F9D083D0820200EF7421
:1007C300F7120417EAFEEBFF1202D8E96401700482
:1007D3007901804812024E900108EEF0A3EFF090E9
:1007E3000249E4F0A3F090010304F0A3E4F0A3F0C2
:1007F300A3F0A312092EE0F91202F012090FFAA3D3
:10080300E0FB1202F612091CE0FAA3E0FB1202FC61
:100813007AFA7B0112033212024879007F01020443
:100823008374F5120417EAFEEBFF8C088D09890A1D
:10083300900103E0700312031A7A67A90A120344B2
:10084300E9F50A120338120326740B250A90010AEC
:1008530012092EA3E090010B6004746180027441BD
:10086300F0A37488F0900101E090010DF09001096C
:10087300120926E0F8A3E0F990010EE8F0A3E9F0ED
:10088300A3EEF0A3EFF012090FF8A3E0F990011221
:10089300E8F0A3E9F07A00801F8A82A882E508289D
:1008A300F582E43509F583E0C0E0741428F582E4A9
:1008B3003401F583D0E0F00AEAC3950A40DB740AF9
:1008C300250AF97A0A7B0112030812032C12031476
:1008D30012091CA3A3A3E06016900102E4F07A4A74
:1008E3007B021202C6900102E070047E0180027E48
:1008F30000900103E07003120320EEA2E040069093
:100903000101E004F0EEF97F03020483900108E0A3
:10091300F8A3E0F5838882E02212092022900108DF
:10092300E0F8A3E0F5838882A3A322F0120920A3B1
:10093300A322C082C08390024DE00207BA74F21270
:1009430004178A088B09890AECFEEDFF12024EAAEE
:100953000A900248E0F9120344E9F50C750D00789A
:100963000C120580900249E0FCA3E0FDAA08AB0944
:1009730012035674021203C5EE4F60211202EAE914
:10098300F50890024CE0F83395E0F9E8C39508F8D0
:10099300E99400F98E828F83E8F0A3E9F090024D89
:1009A300E4F0120248AA0A900248E0F91203447FD5
:1009B30006020483C082C0839001037401F0120312
:1009C3001A0207BBC082C083900103E4F012032024
:1009D3000207BB74F41204178A088B09750A0075A1
:1009E3000B01120242E964017003020A82120260DF
:1009F300E9640370187401250AC0E085088285093B
:100A030083A3A3E0F5F0D0E084E5F0801612026042
:100A1300E964027016E50A700E850882850983A3CE
:100A2300A3E014F50A800A150A8006E50BA2E0503C
:100A3300B1120A8EE0FAA3E0FB790212029C7B3C1E
:100A43007A007903120296120290E914FA743EFBBB
:100A53007903120296750B007E007F00120260E993
:100A6300640460047E007F000EEE70010FC394F4F3
:100A7300EF9401A2D265D03340030209E580DD1271
:100A83000A8EA3A3E0F97F04020483E50A75F00349
:100A9300A4F8A9F0850882850983E028FAA3E03940
:100AA3008A82F5832274F212041774D41203AFEA14
:100AB300FEEBFF9002DAAC0EAD0F740E12037B90C7
:100AC30002E8740E12040D741E12037B120290E9E5
:100AD300F50A75080475090078081205801202DE0C
:100AE30012033EEAFCEBFD74071203FBAA82AB83FD
:100AF30012036874021203C51202E4E92430C0E051
:100B0300740B1203FBD0E0F0EEFAEFFB1203628AE0
:100B1300088B09740E1204051203628B0DE5082A73
:100B2300F8E509350DF9C3E50A98E499400CEEFCA4
:100B3300EFFD740E12040512035C7A107B03790037
:100B43001202A87A187B0379011202A87A207B0388
:100B530079021202A87A287B0379031202A8AA0E4B
:100B6300AB0F790112029C740E1204057902120272
:100B73009C7A067B03790312029C7B007A0079013D
:100B83001202AE7B017A0079021202AE7B027A0175
:100B930079011202AE7B037A0179021202AE742C40
:100BA3001203C57F06020483C292C280C2F989F987
:100BB300A2F950FC00000000D2920200EFC292D2D0
:100BC30080C2F989F9A2F950FC0000000080E9C055
:100BD30082C083C292D280ECF8EDF9E824FF1CE9CD
:100BE30034FFFDE8496014C2F98A828B83E0F5F98A
:100BF300A3AA82AB83A2F940DE80FA00000000D2F0
:100C030092D083D0820200EF74F7120417EAFEEB4E
:100C1300FF74FF29C454F04480F91202667C107DEE
:100C230000EEFAEFFB120272801974F7120417EB4D
:100C3300FE74FF29C454F02A4480F9120266EEF9C7
:100C430012026C7F01020483C082C08353F4FBD27F
:100C53009243FE0453F3FED28043FD017915120241
:100C630066790F12028A790E1202667925120266DC
:100C7300791C1202667A157B001202CC12028412CE
:100C830002A27929120266020C0474F7120417797E
:100C9300801202667E30792012026CDEF980A47421
:100CA300F7120417E9FE7950809179100200EF02E0
:100CB3000C2D74F6120417EA4B603078008A828B8D
:100CC30083E06013C0E0120CF3D0E0F08A828B83E0
:100CD300A3AA82AB838006120CF37420F008E8C346
:100CE300941040D97A287B021202787F020204838F
:100CF300742828F582E43402F583227F04020483F6
:100D030074F712041779C01202667E40790012024A
:100D13006CDEF9020C4674F4120417EAFEEBFFE9E9
:100D230033333354F844C0F9120266750A00850A56
:100D330008EE2508F582E43FF583E0F912026C051D
:100D43000AE50AC3940840E6020CFE020C2DC08299
:100D5300C083906189E04460F09061FA7409F09077
:100D630061B27415F09061AEE4F0900250E0602837
:100D73009061B27415F09061AEE4F09061EB746829
:100D8300F0A3746AF090624474FBF090624704F03D
:100D930043FD80790112030212032C7900801CC0E9
:100DA30082C08390624AE0F98011C082C08390625E
:100DB30049E0C4540F80F0F0EBA3F0D083D082025B
:100DC30000EFC082C08390024F80DBC082C0837576
:100DD300F005E9A424D490618F80DFC082C083EA48
:100DE30090617480D2C082C083EA90617280C8C06F
:100DF30082C083E9700FC2877408001470FC9002EC
:100E03004F7443800DD2877408001470FC90024F16
:100E1300744F020DBD74F612041775E1EE7591FD62
:100E230078008003120E34E8C39940F87F0202046D
:100E330083EA28F582E43BF583E0F5D90822C082F2
:100E4300C083800DE5D98A828B83F0A3AA82AB830A
:100E530019E970F0020DBE79000200EF75E1E9E5D2
:100E630091A2E150FA7591FD80ED75E1EC75E1E336
:100E73000200EF75E1EF75E1EC0200EFC082C08381
:100E83009061A3E0C2E6F0539AFE020DBEC082C099
:100E9300839061A3E0D2E6F0439A01020DBEC082C3
:100EA300C083E5A8F8C2AF900239EAF0A3EBF0E8FB
:100EB300A2E7A2E792AF020DBEC082C08390619306
:100EC300E0542270F8020DBE90023F7407F0A37441
:100ED30020F0A37419F0A37401F012023612025425
:100EE3001202D8E96401700312023079011202B4CC
:100EF3007A7F7B02120350120242E9640170F87A8E
:100F03005E7B011202CC1202847A8C7B027901127D
:100F1300029C7AA07B0212034AE9FE120284740146
:100F23006E705C7A517B02790112029C7A647B02B7
:100F3300790212029C7A727B02790312029C90025C
:100F43003BE4F090023D7420F0A37425F07A3D7BDE
:100F530002120200E96401700312023012021E122F
:100F6300025AE960FA79017C3B7D027AEF7BBE127B
:100F7300020612024E79031202D212024880E07472
:100F8300026E70517A587B02790112029C7A5E7B61
:100F930002790212029C90023D74EFF0A374BEF03A
:100FA3007A3D7B02120200E96401700312023012DF
:100FB300021812020CE960FA7C007D0079017A3C88
:100FC3007B02120212E960EA90023CE070E47901CC
:100FD3001202BA80DD1202300200EF53F5FE53FF16
:100FE300FE43F70143F3400200EF74F61204177E49
:100FF30003E5A0FF7B067A1079801201F4EFA2E0EB
:101003005008EB547FC3945450097E00900227E4A8
:10101300F080207A037B001202C61EEE70D390028A
:1010230027E0700D7401F0FE7A647B001202CC801D
:10103300027E00EEF97F0202048374F7120417E9BB
:10104300FE7B067A1079801201F4EB547FF8C39487
:1010530028500479008020E8C3943C50047901802F
:1010630016E8C3944A50047902800CE8C3945450A0
:1010730004790380027904EE6970C47F010204835A
:10108300C082C083790012022AE96010790112023A
:1010930024790012022AE960031202307900120255
:1010A30024D083D0820200EFEBC313FBEA13FAEAE6
:1010B300F8EBF9E824FFFAE934FFFBE84960130091
:1010C300000000000000000000000000000000001D
:1010D30080DD0200EF74F7120417EAFEEBFFEEF86F
:1010E300EFF9E824FFFEE934FFFFE84960097AE8F5
:1010F3007B031202C680E77F010204830200EFE94B
:1011030014605414602124F160532490603D24FD45
:10111300602714601824FC601A24F8603424EC60FF
:101123001E24F06020803C7AA37B02803A7AA87B5D
:101133000280347AAD7B02802E7AB27B0280287AD9
:10114300B77B0280227ABC7B02801C7AC17B02803F
:10115300167AC67B0280107ACB7B02800A7AD07B18
:101163000280047AD57B020200EFE9C39A4002EAC7
:10117300F90200EFC082C0831202C043FE01C29095
:1011830043FE02C29143FE10C29443FD02C2815347
:10119300F3FD53FDFD438F0253F5FE53FFFE43F76B
:1011A3000143F34012023C12027E120248D083D064
:1011B300820200EF43F1021211D5E59E75FB8075A3
:1011C300F800A2E0E433240F4420F5FC75FA53023F
:1011D30000EF43F48043F44043F42022E5C65480F7
:1011E300F853BEFBE59DA2E550FAE59DA2E240F46B
:1011F300007401697007744948F5C68005E97002F7
:1012030088C6E5C6F8E59E6870FB43BE040200EF9E
:10121300E9F8E59EA2E640047901801AE8700553D7
:10122300C67F8008740168700343C680E5C6F9E58C
:101233009E6970FB79000200EFC082C083E91460ED
:101243000B14600C14600D14600E8014D290801087
:10125300D291800CD2948008D2819002387401F02C
:10126300D083D0820200EFC082C083E914600B14E4
:10127300600D14600F146011801963900180146372
:101283009002800F639010800A638002900238E01E
:101293006401F080CB74F6120417EAF8EBF9740AD0
:1012A3001203FBE0FEA3E0FF8E088F09E50824FF8D
:1012B3001EE50934FFFFE508450960288C828D830C
:1012C300E0A3AC82AD838A828B83F0A3AA82AB8333
:1012D30070D6EE4F600EE4F0A3EE24FF1EEF34FF52
:1012E300FF4E70F2E8FAE9FB7F02020483C082C07A
:1012F300837900121331A281501E7800A281500419
:101303007800790008E8700109C394F4E99401A214
:10131300D265D03340E6790153F3FD900238E0E023
:10132300A2E0928143FD02D083D0820200EF53F307
:10133300FD53FDFD438F022274F6120417EAF8EB06
:10134300F9740A1203FBE0FEA3E0FF80188C828D80
:1013530083E088828983F0A3A882A9838C828D830A
:10136300A3AC82AD838E088F09E50824FF1EE5092F
:1013730034FFFFE508450970D47F0202048374F645
:10138300120417E9FCEAFDEBFE7508017509007804
:101393000812039CE50842F2C28DEC4D4EF5B6A24D
:1013A3008D50FCE5BBF9E5BAFA750801750900EE45
:1013B300780812039CE508F452F2E9FB7F02020469
:1013C3008374F7120417EAF8EBF98005A3AA82AB3A
:1013D300838A828B83E070F48C828D83E0A3AC825A
:1013E300AD838A828B83F0A3AA82AB8370EAE8FA87
:1013F300E9FB7F01020483C082C08379011202BA30
:1014030079021202BA79031202BA79041202BA7A81
:10141300327B001202CC80E3C082C0838A828B833A
:101423008001A3E070FCE582C39AFAE5839BFBD0BD
:1014330083D0820200EFD2AF0200EFC2AF0200EF0F
:04000005000000D720
:00000001FF
