:020000040000FA
:030000000200D724
:030033000205B60D
:03006B0002050586
:03007B0002055724
:1000830002060600000080FBE49001017843790238
:100093008002F0A3D8FCD9FA7A437B029001077857
:1000A300EC79018015E493A3AD82AE838A828B83BE
:1000B300F0A3AA82AB838D828E83D8E9D9E77582B8
:1000C300C275830D74001200E9758286758300740E
:1000D300001200E975D0007581BF750C01750D0123
:1000E300759F0002008BC09FF59FE473D09F22D0C1
:1000F30083D082C09FE493C0E0740193C0E0740294
:1001030093F59F22537769746368004C6967687439
:10011300005265616479004A6F79737469636B2077
:10012300507573680053656E6420436F6D6D616E27
:1001330064004C696768742053776974636800448A
:100143006576696365204D6F64653A200032343209
:100153003000323433300032343331003235323010
:10016300003235333000323533310032353130002F
:100173003235313100313131300031313131002DFF
:100183002D2D2D00202020434378787878202820B7
:1001930029002020200000000000000000000000D3
:1001A300000000000000000000000000000000004C
:1001B3002020205449204C505700FF00000000002D
:1001C3000000000000004302014A0202050302038B
:1001D300070E0E1C191B1B1B1B191C0E0E070318E5
:1001E3001E0703181C060000061C1803071E18121E
:1001F30000F23E06001200F28106001200F27207BE
:10020300001200F2F007001200F20F09001200F2D0
:100213004309001200F26C09001200F28D0900126A
:1002230000F2F209001200F2390A001200F23E0A4B
:10023300001200F2430A001200F2A40A001200F2B4
:10024300B90A001200F2CB0A001200F2000B0012EE
:1002530000F2230B001200F2760B001200F28C0B5B
:10026300001200F28F0B001200F2D60B001200F204
:100273000D0C001200F2100C001200F2430C0012DD
:1002830000F2700C001200F2970C001200F2BA0C8C
:10029300001200F2DD0C001200F2F60C001200F264
:1002A300FF0C001200F2080D001200F2190D0012EB
:1002B30000F22A0D001200F2B70E001200F2C10E76
:1002C300001200F28E0F001200F24611001200F22B
:1002D3008C11001200F2C211001200F2EE1000CADB
:1002E300C0E0E6F0A308DAFAD0E0FA22CAC0E0E000
:1002F300A3C582CCC582C583CDC583F0A3C582CCFB
:10030300C582C583CDC583DAE6D0E0CA2270042254
:10031300600D18C6C333C608C633C6D5E0F4182229
:10032300250C10AF08F50C400C150D8008F50C409A
:1003330002150DD2AF2200C0D0250C10AF08F50C6A
:10034300500C050D8008F50C5002050DD2AFD0D02E
:1003530022250CF58210AF08F50C400C150D800812
:10036300F50C4002150DD2AF850D8322250CF582C5
:10037300E4350DF58322250CFAE4350DFB22250C1B
:10038300FCE4350DFD22E473250CC582C0E0E50DC8
:1003930034FFC583C0E0E50CC3958224F810AF0891
:1003A30085830D85820C800885830D85820CD2AFF1
:1003B300CEF0A3E520F0A37808E608F0A3DEFAEF79
:1003C300F0A3E58124FAF8E608F0A3E608F0A3E633
:1003D30008F0A30808E608F0A3E608F0A3158115C2
:1003E30081D0E0FED0E0F8158115811581E8C0E0E9
:1003F300EEC0E022850D83850C82E0A3FEE0A3F529
:10040300207808E0A3F608DFFAE0A3FFE0A3C0E04A
:10041300E0A3C0E0E0A3C0E0E0A3C0E0E0A3C0E04D
:1004230010AF0885820C85830D800885820C858337
:100433000DD2AFD083D0820200EFC0D0250CC5828D
:10044300C0E0E50D34FFC583C0E0E50CC39582240D
:10045300F310AF0885830D85820C800885830D8595
:10046300820CD2AFC8F0A3E9F0A3EAF0A3EBF0A3A8
:100473007908E709F0A3D8FAECF0A3EDF0A3EEF0C6
:10048300A3EFF0A3D0E0F0A3D0E0F0A3D0E0F0A37B
:10049300E520F0A3E5F0F0A322850D83850C82E02F
:1004A300C0E0A3E0F9A3E0FAA3E0FBA37808E0F639
:1004B30008A3DFFAE0FCA3E0FDA3E0FEA3E0FFA3B3
:1004C300E0C0E0A3E0C0E0A3E0F5D0A3E0F520A303
:1004D300E0A3F5F010AF0885830D85820C800885B5
:1004E300830D85820CD2AFD082D083D0E0F8D0E0E8
:1004F3003274028000C0E0F404120354D0E012020C
:10050300E222C0E074F112043DC2C5E58960327E87
:1005130000750801750900EE7808120310AF08E5AD
:10052300895F6016120549F9E849600A120549F521
:10053300838882120389EFF452890EEEC394084034
:10054300D07F0202049C1205A674FD28F582740173
:100553001205AE22C0E074F112043DC2EBE58A60DD
:10056300327E00750801750900EE7808120310AF9A
:1005730008E58A5F6016120598F9E849600A1205D2
:1005830098F5838882120389EFF4528A0EEEC3949E
:100593000840D080AC1205A6740D28F582740212AF
:1005A30005AE22EE25E0F8E433F92239F583E0F8CD
:1005B300A3E022C0E074F112043DC2E8E58B60328F
:1005C3007E00750801750900EE7808120310AF0864
:1005D300E58B5F60161205F8F9E849600A1205F821
:1005E300F5838882120389EFF4528B0EEEC39405D0
:1005F30040D00205441205A6741D28F58274021228
:1006030005AE22C0E074F212043DA2AFE433FEC291
:10061300AFE5E9A2E6501A900239E0F8A3E0F9E861
:10062300496008E0F5838882120389759B0053E9CA
:10063300BFEEA2E092AF7F0102049C74F612038B1B
:10064300E9FCEAFDEBFE7508017509007808120361
:1006530010E50842F2C28DEC4D4EF5B6A28D50FC6A
:10066300E5BBF9E5BAFA750801750900EE780812D9
:100673000310E508F452F2E9FB7F020203F7C0829C
:10068300C0831202A612022879017A7D7B0112022D
:100693009490017DE0C2E7F06405703F79057A7EAE
:1006A3007B0112029490017EE0A2E55004D2F08017
:1006B30002C2F0A2F0E433900301F0900182E0A2C1
:1006C300E74003020769900180E0F8900101E068C8
:1006D3006003020769A37401020768E024F590022E
:1006E300FEF090017DE0F97A7E7B01120294900185
:1006F3007EE0A2E55004D2F08002C2F0A2F0E4331F
:10070300900301F0900185E0F8A3E0F99002FAE884
:10071300F0A3E9F09002FF7487F0A37401F0900254
:10072300FEE0F83395E0F9748728F8740139F98805
:10073300828983E0900302F088828983A3E0A2E7A1
:10074300501C9002F9E0F8900180E068601090017D
:100753007EE054DF644170069003037401F090015E
:1007630080E09002F9F012022E1202AC020C3C74EB
:10077300F712038BEAFEEBFF120288E964017004AF
:100783007901806612022E900108EEF0A3EFF0903B
:1007930002FFE4F0A3F090010304F0A3E4F0A3F05C
:1007A300A3F0A3F075F0051208FFE0A424D4906130
:1007B3008FF09001091208E1E8906174F0E9A3F069
:1007C300900108E0F8A31208ECE8906172F0E9A345
:1007D300F0E5A8F8C2AF90023974F8F0A37401F001
:1007E300E8A2E792AF1202287900020A9F74F51279
:1007F300038BEAFEEBFF8C088D09890A900103E065
:10080300700312029A7A67A90A1202B8E9F50A90EC
:100813006193E0542270F81202A6740B250A90012A
:100823000AF01208F990010B6004746180027441AC
:10083300F0A37488F0900101E090010DF09001099C
:100843001208EC90010EE8F0A3E9F0A3EEF0A3EF99
:10085300F0900108E0F8A31208E1900112E8F0A378
:10086300E9F07A00801F8A82A882E50828F582E4ED
:100873003509F583E0C0E0741428F582E43401F50A
:1008830083D0E0F00AEAC3950A40DB740A250AF92B
:100893007A0A7B0112028E1202AC75E1E9E591A29C
:1008A300E150FA7591FD1208F96016900102E4F027
:1008B3007A4A7B0212027C900102E070047E01807E
:1008C300027E00900103E070031202A0EEA2E0405A
:1008D30006900101E004F0EEF97F030203F7E0F56F
:1008E300838882E0F8A3E0F922E0F5838882A3A35A
:1008F300E0F8A3E0F9221208FFA3E022900108E048
:10090300F8A3E0F5838882A3A3A3A322E5C65480BA
:10091300F853BEFBE59DA2E550FAE59DA2E240F443
:10092300007401697007744948F5C68005E97002CF
:1009330088C6E5C6F8E59E6870FB43BE040200EF77
:10094300E9F8E59EA2E640047901801AE8700553B0
:10095300C67F8008740168700343C680E5C6F9E565
:100963009E6970FB79000200EFC082C08379011297
:100973000276790212027679031202767904120260
:10098300767A327B0012028280E3C082C0837900D0
:10099300120210E96010790112020A7900120210A2
:1009A300E96003120216790012020A43FE01C290A3
:1009B30043FE02C29143FE10C29443FD02C2811260
:1009C3000A2F120EAA43F10243F48043F44043F486
:1009D30020E59E75FB8075F800A2E0E433240F4404
:1009E30020F5FC75FA53120252120228020C3CC085
:1009F30082C0837900120A2FA281501E7800A2813F
:100A030050047800790008E8700109C394F4E9946C
:100A130001A2D265D03340E6790153F3FD90023849
:100A2300E0E0A2E0928143FD02020C3C53F3FD534C
:100A3300FDFD438F0222D2AF0200EFC2AF0200EFEF
:100A430074F712038BE9FE7B067A1079801201F2A8
:100A5300EB547FF8C39428500479008020E8C394B2
:100A63003C500479018016E8C3944A50047902800B
:100A73000CE8C394545004790380027904EE69703E
:100A8300C4801974F712038BEBFE74FF29C454F06E
:100A93002A4480F912023AEEF91202407F0102035E
:100AA300F7C292C280C2F989F9A2F950FC00000092
:100AB30000D2920200EFC292D280C2F989F9A2F960
:100AC30050FC0000000080E9C082C083C292D28043
:100AD300ECF8EDF9E824FF1CE934FFFDE849601464
:100AE300C2F98A828B83E0F5F9A3AA82AB83A2F9C8
:100AF30040DE80FA00000000D292020C3C74F71230
:100B0300038BEAFEEBFF74FF29C454F04480F9120F
:100B1300023A7C107D00EEFAEFFB120246020A9FB6
:100B230074F712038B53F4FBD29243FE0453F3FE88
:100B3300D28043FD01791512023A795012023A79B3
:100B43000F120240790E12023A792512023A791CE9
:100B530012023A7A157B0012028212025879C012ED
:100B6300023A7E407900120240DEF9792912023AF4
:100B7300020A9F74F712038B798012023A7E30794E
:100B830020120240DEF9020A9F020A8674F612035B
:100B93008BEA4B603078008A828B83E06013C0E07D
:100BA300120BCBD0E0F08A828B83A3AA82AB838023
:100BB30006120BCB7420F008E8C3941040D97A28AE
:100BC3007B0212024C02067C742828F582E434026C
:100BD300F5832274F412038BEAFEEBFFE93333331C
:100BE30054F844C0F912023A750A00850A08EE2542
:100BF30008F582E43FF583E0F9120240050AE50AAD
:100C0300C3940840E67F040203F7020A86C082C049
:100C130083E914600B14600D14600F1460118019C4
:100C23006390018014639002800F639010800A63C5
:100C33008002900238E06401F0D083D0820200EF9A
:100C4300EBC313FBEA13FAEAF8EBF9E824FFFAE93A
:100C530034FFFBE8496013000000000000000000BF
:100C6300000000000000000080DD0200EF74F712B6
:100C7300038BEAFEEBFFEEF8EFF9E824FFFEE9341D
:100C8300FFFFE84960097AE87B0312027C80E77F73
:100C9300010203F7C082C083906189E04460F09051
:100CA30061FA7409F09061B27415F09061AEE4F0EA
:100CB3001202AC7900808274F612038B75E1EE7533
:100CC30091FD7800800CEA28F582E43BF583E0F59A
:100CD300D908E8C39940EF02067CC082C083800D27
:100CE300E5D98A828B83F0A3AA82AB8319E970F0DA
:100CF300020C3C75E1EC75E1E30200EF75E1EF7581
:100D0300E1EC0200EFC082C0839061A3E0C2E6F091
:100D1300539AFE020C3CC082C0839061A3E0D2E6EA
:100D2300F0439A01020C3C74F612038B7A437B0264
:100D330079011202647A567B0279021202647A64A0
:100D43007B02790312026490023BE4F090023D744B
:100D530020F0A37425F07A3D7B021201FEE96401C1
:100D63007003120216900103E4F01202A08036EB26
:100D7300547FC3945440417A037B0012027C1EEEDD
:100D83007025900227E0701D7401F07A647B0012D5
:100D9300028279017C3B7D027AEF7BBE1202041250
:100DA300022E1202287E03E5A0FF7B067A107980CB
:100DB3001201F2EFA2E040B7900227E4F080E69040
:100DC300023F7407F0A37420F0A37419F0A3740115
:100DD300F012021C120EAA120288E96401700312B7
:100DE3000216D2907A717B021202C4120222E964C3
:100DF3000170F87A5E7B011202821202587A7E7BBE
:100E03000279011202647A0B7B031202BEE9FE121D
:100E1300025874016E70091202B21202160200EF38
:100E230074026E70F57A4A7B0279011202647A5079
:100E33007B02790212026490023D74EFF0A374BE48
:100E4300F07A3D7B021201FEE9640170031202167F
:100E530012029A80057901120276900303E060FA88
:100E630012022E9002FEE0FE7A01F91202B8E9F5B1
:100E73000875090078081204F49002FFE0FCA3E06F
:100E8300FD7A3C7B021202CA7402120339900303F7
:100E9300E4F01202287A01EEF91202B8E960BB907D
:100EA300023CE070B580AE53F5FE53FFFE43F701FD
:100EB30043F34022E9C39A4002EAF90200EF74F4D3
:100EC30012038BEAFEEBFF750A00750B0112022277
:100ED300E964017003020F6C120234E964037016B3
:100EE3007401250AC0E08E828F83A3A3E0F5F0D0BE
:100EF300E084E5F08014120234E964027014E50A18
:100F0300700C8E828F83A3A3E014F50A800A150A5E
:100F13008006E50BA2E050B5120F76E0FAA3E0FBE2
:100F230079021202647B3C7A00790312025E7B3EF3
:100F33007A0F790312025E750B00750800750900BC
:100F4300120234E964046006750800750900050897
:100F5300E50870020509C394F4E5099401A2D2657A
:100F6300D0334003020ED080D7120F76A3A3E0F94B
:100F7300020C08E50A75F003A4F8A9F08E828F83AA
:100F8300E028FAA3E0398A82F5832274F412038BF2
:100F930074D4120323EAFEEBFF9002C3AC0CAD0D35
:100FA300740E1202EF9002D1740E120381741E129A
:100FB30002EF90624AE014602A14605724F1601D26
:100FC3002490602B24FD603914604224FC60382493
:100FD300F8601624EC602424F0601A803C7CB97D10
:100FE30002803A7CB47D0280347CAF7D02802E7C0B
:100FF300AA7D0280287CA57D0280227CA07D0280C0
:101003001C7C9B7D0280167C967D0280107C917DEA
:1010130002800A7C8C7D0280047CBE7D02750804FC
:1010230075090078081204F4740712036FAA82ABDF
:10103300831202DC7402120339906249E0C4540F34
:101043002430C0E0740B12036FD0E0F0EEFAEFFB34
:101053001202D68A088B09740E1203791202D68BF8
:101063000BE5082AF8E509350BF9C3E89411E9946F
:1010730000500CEEFCEFFD740E1203791202D07ACD
:101083000E7B03790012026A7A167B03790112023E
:101093006A7A1E7B03790212026A7A267B0379033A
:1010A30012026AAA0CAB0D7901120264740E1203C8
:1010B3007979021202647AEF7B0279031202647B6C
:1010C300007A0079011202707B017A007902120220
:1010D300707B027A0179011202707B037A01790233
:1010E300120270742C120339020C0874F612038B6B
:1010F300EAF8EBF9740A12036FE0FEA3E0FF8E082F
:101103008F09E50824FF1EE50934FFFFE5084509BB
:1011130060288C828D83E0A3AC82AD838A828B832B
:10112300F0A3AA82AB8370D6EE4F600EE4F0A3EE79
:1011330024FF1EEF34FFFF4E70F2E8FAE9FB7F0253
:101143000203F774F612038BEAF8EBF9740A12033D
:101153006FE0FEA3E0FF80188C828D83E088828994
:1011630083F0A3A882A9838C828D83A3AC82AD83F1
:101173008E088F09E50824FF1EE50934FFFFE50803
:10118300450970D47F020203F774F712038BEAF860
:10119300EBF98005A3AA82AB838A828B83E070F488
:1011A3008C828D83E0A3AC82AD838A828B83F0A390
:1011B300AA82AB8370EAE8FAE9FB7F010203F7C076
:1011C30082C0838A828B838001A3E070FCE582C3A3
:0D11D3009AFAE5839BFBD083D0820200EFE7
:04000005000000D720
:00000001FF
